:08000000803102288731FD2F39
:100CAA000032000020000C100032000020000C145A
:100CBA000032000020000C10003200000800220060
:100CCA008C018D0120008C018D0123008C018D0186
:100CDA0021008C018D018631BE260800D030F0003B
:100CEA00F00B752E20000C10D030F000F00B7B2E8C
:100CFA0020000C14D030F000F00B812E20000C10D4
:100D0A00D030F000F00B872E0800F1007108F0399E
:100D1A0020008D008631552686317108F000033097
:100D2A00F035FF3E031D952E7035F03920008D00F9
:100D3A008631552620008D018C010800F1007108CA
:100D4A00F03920008D000C15863155268631710840
:100D5A00F0000330F035FF3E031DAF2E7035F03939
:100D6A0020008D000C158631552620008D018C013E
:100D7A0008000530F3000D30F200F20BC22EF30B1F
:100D8A00C22E0000303020008D0086317326863155
:100D9A00303020008D0086317326863130302000B5
:100DAA008D00863173268631203020008D008631F1
:100DBA0073268631283086318A2686310C30863170
:100DCA008A268631013086318A2686310630863176
:100DDA008A260800F601F31FF92EF209F309F20A2E
:100DEA000319F30AF601F60AF11F002FF009F109B7
:100DFA00F00A0319F10A700871040319272FF50183
:100E0A00F50AF11B122F0130F035F10D890B092F6C
:100E1A000130F4007408F507062F71087302031DE8
:100E2A00182F70087202031C1E2F7008F202710834
:100E3A00F33B0130F136F00C890B1F2F0130F5021C
:100E4A00031D122F760803192F2FF209F309F20A4C
:100E5A000319F30A7308F1007208F0000800200071
:100E6A00A101F81F3F2FF709F809F70A0319F80A31
:100E7A00A101A10AFA1F4A2FF909FA09F90A031965
:100E8A00FA0A0130FB007B08A106A201A301770838
:100E9A0078040319792FA001A00AF81B5E2F0130EC
:100EAA00F735F80D890B552F0130FB007B08A00799
:100EBA00522F0130A235A30D890B5F2F78087A02D1
:100ECA00031D692F77087902031C702F7708F9022E
:100EDA007808FA3B22140130F836F70C890B712F87
:100EEA000130A002031D5E2F21080319812FA209D8
:100EFA00A309A20A0319A30A2308F8002208F70083
:100F0A000800863164268731013086318A26873186
:100F1A002000A401803086318A2687316430F700A8
:100F2A000030F80020002408FC00FD017C08F900CC
:100F3A007D08FA008731342787317708303E8631B9
:100F4A00A32687310A30F7000030F8002000240871
:100F5A00FC00FD017C08F2007D08F3006430F0001B
:100F6A000030F1008631EF2687317108FA007008E7
:100F7A00F9008731342787317708303E8631A32636
:100F8A0087310A30F0000030F10020002408FC000C
:100F9A00FD017C08F2007D08F3008631EF268731D7
:100FAA007008303E8631A32687310130FC007C0868
:100FBA002000A4072930FD009430FC00FC0BE32F2D
:100FCA00FD0BE32F0000C03086318A26873120309E
:100FDA008631A326873148308631A326873165308A
:100FEA008631A32687316A308631A32687318F2F2F
:060FFA0020008731862F64
:00000001FF
