:08000000803102288731FD2F39
:100F8400383021009900980108008731E127873122
:100F94008731C22708008731C727873121008C1287
:100FA40022008C1621000C1122000C1521008C103B
:100FB40022008C1421008E1222008E16D02F2200C3
:100FC4008D018C018E013F3024008C00F0308D00A7
:100FD400FF308E00173023008C00F0308D00CF30AE
:100FE4008E00F03021008D00FF308E0037308C00F1
:0C0FF40095178B11080020008731CD2FCD
:020000040001F9
:06000E00FC3FFF3F9F3F95
:00000001FF
