:08000000803102288731FD2F39
:100F8200240016081F39031DC12F141D0800C12F8C
:100F920021001908FC39023899007830990423009D
:100FA2009F119C0119309B00FF3026008E00230008
:100FB2008E0120008D178D1FE12F20000D16E32FCB
:100FC20020000D1224001510951015119515941777
:100FD200141723009D172400161628309500273079
:100FE20092008B1701302100900010162400161475
:0E0FF2008731C1278031022820008731C92FA6
:00000001FF
