:08000000803102288731F62F40
:1006560021009D149D182D2B1C08F1001B08F0008D
:1006660008000032000020000C10003200002000BC
:100676000C140032000020000C10003200000800AC
:1006860022008C018D0120008C018D0123008C013C
:100696008D0121008C018D018331D023080078085B
:1006A600F0007908F100F2018E30FB007B08F300C0
:1006B600F401843198247008F8007108F900720872
:1006C600FA000800D030F000F00B672B20000C1069
:1006D600D030F000F00B6D2B20000C14D030F00061
:1006E600F00B732B20000C10D030F000F00B792BA0
:1006F6000800F1007108F03920008D0083313423A1
:1007060083317108F0000330F035FF3E031D872B5F
:100716007035F03920008D008331342320008D019F
:100726008C010800F1007108F03920008D000C15CD
:100736008331342383317108F0000330F035FF3EF6
:10074600031DA12B7035F03920008D000C15833167
:10075600342320008D018C010800FD01F91FBA2BFE
:10076600F809F909F80A0319F90AFD01FD0A7808DA
:10077600F0007908F100F2018E30FB007B08F300EF
:100786007D08FC007C08F400843198247008F80089
:100796007108F9007208FA0008000530F3000D3000
:1007A600F200F20BD42BF30BD42B000030302000D8
:1007B6008D00833165238331303020008D008331F5
:1007C60065238331303020008D00833165238331EA
:1007D600203020008D00833165238331283083311A
:1007E6007C2383310C3083317C2383310130833188
:1007F6007C238331063083317C2308002000A1014D
:10080600FC1F0C2CFB09FC09FB0A0319FC0AA101BD
:10081600A10AFA1F132CF909FA09F90A0319FA0AA7
:1008260079087A0403193A2CA001A00AFA1B252C90
:100836000130F935FA0D890B1C2C0130FD007D08BD
:10084600A007192C7A087C02031D2B2C79087B0241
:10085600031C312C7908FB027A08FC3B0130FA367E
:10086600F90C890B322C0130A002031D252C21081E
:100876000319422CFB09FC09FB0A0319FC0A7C0834
:10088600FA007B08F9000800F601F11F512CF00967
:10089600F109F00A0319F10AF601F60AF31F5C2CB6
:1008A600F209F309F20A0319F30A0130F400740895
:1008B600F606F701F8017008710403198B2CF5018F
:1008C600F50AF11B702C0130F035F10D890B672C00
:1008D6000130F4007408F507642C0130F735F80D83
:1008E600890B712C71087302031D7B2C7008720230
:1008F600031C822C7008F2027108F33B7714013056
:10090600F136F00C890B832C0130F502031D702C97
:1009160076080319932CF709F809F70A0319F80A58
:100926007808F1007708F000080073080319A02C76
:10093600720871047004031DB12C0030F000003001
:10094600F1000030F20008000130F5007508F307E9
:100956000130F236F10CF00C890BAC2CFE3072052E
:100966000319CA2CA72C0130F5007508F3070130CE
:10097600F007003003180130F1070030031801308A
:10098600F2070130F236F10CF00C890BC52CFF3062
:1009960072050319D72CB62C0130F3020130F0355D
:1009A600F10DF20D890BD22CF11BDD2C02307302F6
:1009B6000318CF2C7318E52CFF30F0057F30F105B6
:1009C600FF30F2050310F30C7308F500F601F7018A
:1009D6001030F535F60DF70D890BEC2C7508F00483
:1009E6007608F1047708F204740803190800F21770
:1009F600080020004008C4004108C5004208C6009F
:100A06000310450D460DC7004708CD004D08031DD0
:100A1600152D0030C3000030C2000030C100003088
:100A2600C00008004008C4004108C5004208C600CE
:100A36001730C636C50CC40C890B1C2D4408C700DC
:100A46004708C800C117FF30C005FF30C105003098
:100A5600C2054008C9004108CA004208CB00CC01C3
:100A66008E30CD02CD1F532D4D08803A8F3E031890
:100A7600452D0030C3000030C2000030C1000030F8
:100A8600C00008000130CC36CB0CCA0CC90C890B4F
:100A9600462D0130C4004408CD0703196C2D452DA1
:100AA60018304D02031C692D0030C3000030C2000F
:100AB6000030C1000030C00008000130C935CA0D41
:100AC600CB0DCC0D890B612D0130CD024D08031DD8
:100AD600602D480803197A2DC909CA09CB09CC0922
:100AE600C90A0319CA0A0319CB0A0319CC0A4C0806
:100AF600C3004B08C2004A08C1004908C0000800EC
:100B060020003308B6003408B7003508B8000310D3
:100B1600370D380DB9003908BE003E08031D9A2D61
:100B26000030B0000030B1000030B20008003008DC
:100B3600B6003108B7003208B8000310370D380D7B
:100B4600B9003908BF003F08031DB02D0030B000C2
:100B56000030B1000030B20008000030BB000030A9
:100B6600BC000030BD0089303F07B6003608BE0223
:100B76003308B6003408B7003508B8001030B83668
:100B8600B70CB60C890BC22D3608B9003908BF0060
:100B96003008B6003108B7003208B8001030B83651
:100BA600B70CB60C890BD22D3608B9003908BF062A
:100BB6008030B6003608BF05B417FF30B305FF30E6
:100BC600B4050030B505B117FF30B005FF30B105EB
:100BD6000030B2051830B6003608BA000130BB3511
:100BE600BC0DBD0D890BF22D32083502031D012EF9
:100BF60031083402031D012E30083302031C0A2E6D
:100C06003008B3023108B43B3208B53B3B1401301F
:100C1600B335B40DB50D890B0B2E0130BA02031D89
:100C2600F12D3B08F0003C08F1003D08F2003E08BB
:100C3600B6003608F3003F08B7003708F4008431E1
:100C4600982470082000B0007108B1007208B20044
:100C5600080020002008A6002108A7002208A800F6
:100C66000310270D280DA9002908AA002A08031D2C
:100C7600432E0030A0000030A1000030A200080082
:100C86002308A6002408A7002508A8000310270D9E
:100C9600280DA9002908AF002F08031D592E003082
:100CA600A0000030A1000030A20008002F087B3E03
:100CB600A6002608AA072008A6002108A7002208E1
:100CC600A8001030A836A70CA60C890B652E26089E
:100CD600A9002908AF002308A6002408A7002508B4
:100CE600A8001030A836A70CA60C890B752E26086E
:100CF600A9002908AF068030A6002608AF05A1176F
:100D0600A417FF30A305FF30A4050030A505003069
:100D1600AB000030AC000030AD000730A60026085E
:100D2600AE00201C9C2E2308AB072408AC3D2508EA
:100D3600AD3D0130A236A10CA00C890B9D2E0130D1
:100D4600A335A40DA50D890BA32E0130AE02031DFC
:100D5600942E0930A6002608AE00201CB82E2308C3
:100D6600AB072408AC3D2508AD3D0130A236A10CE9
:100D7600A00C890BB92E0130AD36AC0CAB0C890B2F
:100D8600BF2E0130AE02031DB02E2B08F0002C083A
:100D9600F1002D08F2002A08A6002608F3002F0805
:100DA600A7002708F4008431982470082000A000CA
:100DB6007108A1007208A20008008331432386311E
:100DC600013083317C23863121000E1423000E145A
:100DD600C03021009E0075309D00703022009700C3
:100DE60083312B23863171082000DA007008D90080
:100DF6005A08F9005908F8008331522386317808D9
:100E06002000A3007908A4007A08A5004030A000BD
:100E16009C30A1004530A20086312C268631200068
:100E26002008B3002108B4002208B5000030B00045
:100E36008030B1004430B2008531832586312000F0
:100E46003008C0003108C1003208C2008431FC24D9
:100E5600863120004108D1004008D0005108F90031
:100E66005008F8008331B023863178082000B3009B
:100E76007908B4007A08B5000030B0002030B1001F
:100E86004130B20085318325863120003008C0000C
:100E96003108C1003208C2008431FC2486312000AA
:100EA6004108D3004008D200D030CE00CE0B592FD7
:100EB600E830F0000330F10020005308F300520838
:100EC600F2008431472486317008303E2000CE007F
:100ED6004E08D4000A30F9000030FA006430F00001
:100EE6000030F1005308F3005208F2008431472421
:100EF60086317108FC007008FB00843101248631BC
:100F06007908303E2000CE004E08D5000A30F900A0
:100F16000030FA000A30F0000030F1005308F30008
:100F26005208F2008431472486317108FC007008AB
:100F3600FB008431012486317908303E2000CE0042
:100F46004E08D6000A30F9000030FA005308FC00BB
:100F56005208FB008431012486317908303E200096
:100F6600CE004E08D700D801803083317C238631ED
:100F7600200054088331952386312000550883319B
:100F8600952386312000560883319523863120002B
:100F96005708833195238631203083319523863156
:100FA600433083319523863129302000CF00943099
:100FB600CE00CE0BDC2FCF0BDC2F0000C0308331F0
:100FC6007C23863120308331952386314830833126
:100FD6009523863165308331952386316A30833196
:100FE60095238631F32ED401D501D601D701D80138
:0A0FF600D901DA0120008631E02E57
:00000001FF
