:0400000080313228F1
:100008007E14803120007F08F100270019080319A9
:1000180019289901D030F000F00B102820000C1995
:1000280019280130F0007008F2060B1D2D280B115D
:100038007203031D2828031022008E0C2000031CC5
:100048002D2822008E152D28031022008E0D0E1A41
:100058000E1471082000FF007E100900803134283A
:100068007E102000803138283830210099008E0118
:1000780022008E018E15F201F20A21000E162400CC
:100088000E1621009513073095008B168B15270047
:0600980018168B174E281C
:020000040001F9
:06000E00FC3FFF3F9F3F95
:00000001FF
