:08000000803102288731FA2F3C
:100F82000134113021008E003830990022008E0188
:100F92005230F1002930F000F00BCD2FF10BCD2FA4
:100FA20000327203031DD82F22000E15DA2F220001
:100FB2000E1102307206031DE02F8E15E12F8E11E5
:100FC20003307206031DE72F0E17E82F0E130430AD
:100FD2007206031DEE2F8E17EF2F8E130130F000D5
:100FE2007008F20705307206031DC92FF201F20ADA
:0E0FF200C92F8731C127F20020008731C22F9E
:00000001FF
