:0400000080313928EA
:100008007E14803120007F08F100270019080319A9
:1000180032289901D030F000F00B102820000C197C
:10002800322822008C1A1B2822008C141D2822003A
:100038008C108C1C222822008C16242822008C125A
:100048000C19292822008E162B2822008E128E1EAB
:10005800302822000C15322822000C110B190B1124
:1000680071082000FF007E10090080313B28F20152
:100078007E102000803140283830210099008C0102
:100088008E0122008E018D018C0121000E162200A6
:100098008E168E1E522822000C15542822000C1190
:1000A80024000E1621009513073095008B168B152A
:0800B800270018168B175F28C2
:020000040001F9
:06000E00FC3FFF3F9F3F95
:00000001FF
