:08000000803102288731EC2F4A
:100F5400043408344034803421009D149D18B02F8B
:100F64001C080800F7013830210099008E01CC30AC
:100F740022008E0021000E1423000E1411302100D3
:100F84009D0010309E008731AE278731F600760829
:100F9400F700D030F600F60BCD2F0130F702770AB8
:100FA4000319D92F5330F600F60BD62FCF2F740820
:100FB400703E86008701010822008E000130F4078C
:100FC4000030F53D043074067504031DC52FF4018B
:100FD400F501C52FF401F5018731AA278731F00007
:100FE4008731AB278731F1008731AC278731F20095
:0C0FF4008731AD27F30020008731B42FB7
:00000001FF
