:08000000803102288731FA2F3C
:100F3600013421009D149D189E2F1C0808002000D6
:100F46000E1EBB2FD030F200F20BA72F7408031D24
:100F5600B12F20000E1AB12F0030080020000E1A03
:100F6600B72FF40101300800F401F40A003008003C
:100F7600F401F40A00300800383021009900F1012C
:100F8600F10A8C01043022008C00113021008E0001
:100F960011309D0010309E0087319C278731F30069
:100FA6007308F000D030F300F30BD72F0130F002B6
:100FB600700A0319E32F5330F300F30BE02FD92FF8
:100FC6008731A2278731003A0319ED2F0130F3004C
:100FD6007308F1067103031DF32F22000C15CF2FA2
:100FE600031022008C0D0C1DCF2F0C14CF2F873130
:0A0FF6009B27F40020008731BF2F75
:00000001FF
