:08000000803102288731ED2F49
:100F6600043408344034803421009D149D18B92F70
:100F76001C080800113021008E008D0138309900C0
:100F860022008E0121000D1623000D1621001D08DA
:100F9600833928389D001D148F309E055230F50088
:100FA6002930F400F40BD52FF50BD52F0032760837
:100FB600703E86008701010822008E008731B72720
:100FC6008731F4007408F60004307606031DD12F2D
:100FD600F601D12FF6018731B3278731F00087312B
:100FE600B4278731F1008731B5278731F200873181
:0A0FF600B627F30020008731BD2F5D
:00000001FF
