:08000000803102288731EA2F4C
:100EF60010342034403480343830210099000F30CB
:100F06008D0022008D015230F9002930F800F80BCF
:100F16008A2FF90B8A2F00327008743E86008701EB
:100F2600010822008D0070087104031DA72F0430EC
:100F3600FA002C30F900AD30F800F80BA02FF90BB1
:100F4600A02FFA0BA02F0032023070067104031D89
:100F5600B92F0730FA005830F9005E30F800F80B68
:100F6600B22FF90BB22FFA0BB22F003203307006F4
:100F76007104031DC62FA330F9005530F800F80B95
:100F8600C22FF90BC22F0130F0070030F13D0430BB
:100F960070067104031DD52FF001F1010130F2072F
:100FA6000030F33D093072067304031D862F2200BC
:100FB6008D010430FA002C30F900AD30F800F80B42
:100FC600E22FF90BE22FFA0BE22F0032862FF00107
:100FD600F101F201F30187317B278731F400873174
:100FE6007C278731F50087317D278731F6008731E9
:0A0FF6007E27F700200087317F2FCF
:020000040001F9
:06000E00FC3FFF3F9F3F95
:00000001FF
